{
  "contractName": "CollateralBackedToken",
  "abi": [
    {
      "inputs": [
        {
          "internalType": "address",
          "name": "_collateral",
          "type": "address"
        }
      ],
      "stateMutability": "nonpayable",
      "type": "constructor"
    },
    {
      "anonymous": false,
      "inputs": [
        {
          "indexed": true,
          "internalType": "address",
          "name": "owner",
          "type": "address"
        },
        {
          "indexed": true,
          "internalType": "address",
          "name": "spender",
          "type": "address"
        },
        {
          "indexed": false,
          "internalType": "uint256",
          "name": "value",
          "type": "uint256"
        }
      ],
      "name": "Approval",
      "type": "event"
    },
    {
      "anonymous": false,
      "inputs": [
        {
          "indexed": true,
          "internalType": "address",
          "name": "from",
          "type": "address"
        },
        {
          "indexed": true,
          "internalType": "address",
          "name": "to",
          "type": "address"
        },
        {
          "indexed": false,
          "internalType": "uint256",
          "name": "value",
          "type": "uint256"
        }
      ],
      "name": "Transfer",
      "type": "event"
    },
    {
      "inputs": [
        {
          "internalType": "address",
          "name": "owner",
          "type": "address"
        },
        {
          "internalType": "address",
          "name": "spender",
          "type": "address"
        }
      ],
      "name": "allowance",
      "outputs": [
        {
          "internalType": "uint256",
          "name": "",
          "type": "uint256"
        }
      ],
      "stateMutability": "view",
      "type": "function"
    },
    {
      "inputs": [
        {
          "internalType": "address",
          "name": "spender",
          "type": "address"
        },
        {
          "internalType": "uint256",
          "name": "amount",
          "type": "uint256"
        }
      ],
      "name": "approve",
      "outputs": [
        {
          "internalType": "bool",
          "name": "",
          "type": "bool"
        }
      ],
      "stateMutability": "nonpayable",
      "type": "function"
    },
    {
      "inputs": [
        {
          "internalType": "address",
          "name": "account",
          "type": "address"
        }
      ],
      "name": "balanceOf",
      "outputs": [
        {
          "internalType": "uint256",
          "name": "",
          "type": "uint256"
        }
      ],
      "stateMutability": "view",
      "type": "function"
    },
    {
      "inputs": [],
      "name": "decimals",
      "outputs": [
        {
          "internalType": "uint8",
          "name": "",
          "type": "uint8"
        }
      ],
      "stateMutability": "view",
      "type": "function"
    },
    {
      "inputs": [
        {
          "internalType": "address",
          "name": "spender",
          "type": "address"
        },
        {
          "internalType": "uint256",
          "name": "subtractedValue",
          "type": "uint256"
        }
      ],
      "name": "decreaseAllowance",
      "outputs": [
        {
          "internalType": "bool",
          "name": "",
          "type": "bool"
        }
      ],
      "stateMutability": "nonpayable",
      "type": "function"
    },
    {
      "inputs": [
        {
          "internalType": "address",
          "name": "spender",
          "type": "address"
        },
        {
          "internalType": "uint256",
          "name": "addedValue",
          "type": "uint256"
        }
      ],
      "name": "increaseAllowance",
      "outputs": [
        {
          "internalType": "bool",
          "name": "",
          "type": "bool"
        }
      ],
      "stateMutability": "nonpayable",
      "type": "function"
    },
    {
      "inputs": [],
      "name": "name",
      "outputs": [
        {
          "internalType": "string",
          "name": "",
          "type": "string"
        }
      ],
      "stateMutability": "view",
      "type": "function"
    },
    {
      "inputs": [],
      "name": "symbol",
      "outputs": [
        {
          "internalType": "string",
          "name": "",
          "type": "string"
        }
      ],
      "stateMutability": "view",
      "type": "function"
    },
    {
      "inputs": [],
      "name": "totalSupply",
      "outputs": [
        {
          "internalType": "uint256",
          "name": "",
          "type": "uint256"
        }
      ],
      "stateMutability": "view",
      "type": "function"
    },
    {
      "inputs": [
        {
          "internalType": "address",
          "name": "recipient",
          "type": "address"
        },
        {
          "internalType": "uint256",
          "name": "amount",
          "type": "uint256"
        }
      ],
      "name": "transfer",
      "outputs": [
        {
          "internalType": "bool",
          "name": "",
          "type": "bool"
        }
      ],
      "stateMutability": "nonpayable",
      "type": "function"
    },
    {
      "inputs": [
        {
          "internalType": "address",
          "name": "sender",
          "type": "address"
        },
        {
          "internalType": "address",
          "name": "recipient",
          "type": "address"
        },
        {
          "internalType": "uint256",
          "name": "amount",
          "type": "uint256"
        }
      ],
      "name": "transferFrom",
      "outputs": [
        {
          "internalType": "bool",
          "name": "",
          "type": "bool"
        }
      ],
      "stateMutability": "nonpayable",
      "type": "function"
    },
    {
      "inputs": [
        {
          "internalType": "uint256",
          "name": "collateralAmount",
          "type": "uint256"
        }
      ],
      "name": "deposit",
      "outputs": [],
      "stateMutability": "nonpayable",
      "type": "function"
    },
    {
      "inputs": [
        {
          "internalType": "uint256",
          "name": "collateralAmount",
          "type": "uint256"
        }
      ],
      "name": "withdraw",
      "outputs": [],
      "stateMutability": "nonpayable",
      "type": "function"
    }
  ],
  "bytecode": "0x60806040523480156200001157600080fd5b5060405162001f6538038062001f658339818101604052810190620000379190620001ee565b6040518060400160405280601781526020017f436f6c6c61746572616c204261636b656420546f6b656e0000000000000000008152506040518060400160405280600381526020017f43425400000000000000000000000000000000000000000000000000000000008152508160039080519060200190620000bb92919062000127565b508060049080519060200190620000d492919062000127565b50505080600560006101000a81548173ffffffffffffffffffffffffffffffffffffffff021916908373ffffffffffffffffffffffffffffffffffffffff160217905550600260068190555050620002cd565b82805462000135906200024e565b90600052602060002090601f016020900481019282620001595760008555620001a5565b82601f106200017457805160ff1916838001178555620001a5565b82800160010185558215620001a5579182015b82811115620001a457825182559160200191906001019062000187565b5b509050620001b49190620001b8565b5090565b5b80821115620001d3576000816000905550600101620001b9565b5090565b600081519050620001e881620002b3565b92915050565b6000602082840312156200020157600080fd5b60006200021184828501620001d7565b91505092915050565b600062000227826200022e565b9050919050565b600073ffffffffffffffffffffffffffffffffffffffff82169050919050565b600060028204905060018216806200026757607f821691505b602082108114156200027e576200027d62000284565b5b50919050565b7f4e487b7100000000000000000000000000000000000000000000000000000000600052602260045260246000fd5b620002be816200021a565b8114620002ca57600080fd5b50565b611c8880620002dd6000396000f3fe608060405234801561001057600080fd5b50600436106100cf5760003560e01c8063395093511161008c578063a457c2d711610066578063a457c2d714610228578063a9059cbb14610258578063b6b55f2514610288578063dd62ed3e146102a4576100cf565b806339509351146101aa57806370a08231146101da57806395d89b411461020a576100cf565b806306fdde03146100d4578063095ea7b3146100f257806318160ddd1461012257806323b872dd146101405780632e1a7d4d14610170578063313ce5671461018c575b600080fd5b6100dc6102d4565b6040516100e99190611513565b60405180910390f35b61010c60048036038101906101079190611214565b610366565b60405161011991906114f8565b60405180910390f35b61012a610384565b6040516101379190611695565b60405180910390f35b61015a600480360381019061015591906111c5565b61038e565b60405161016791906114f8565b60405180910390f35b61018a60048036038101906101859190611279565b61048f565b005b6101946105af565b6040516101a191906116b0565b60405180910390f35b6101c460048036038101906101bf9190611214565b6105b8565b6040516101d191906114f8565b60405180910390f35b6101f460048036038101906101ef9190611160565b610664565b6040516102019190611695565b60405180910390f35b6102126106ac565b60405161021f9190611513565b60405180910390f35b610242600480360381019061023d9190611214565b61073e565b60405161024f91906114f8565b60405180910390f35b610272600480360381019061026d9190611214565b610832565b60405161027f91906114f8565b60405180910390f35b6102a2600480360381019061029d9190611279565b610850565b005b6102be60048036038101906102b99190611189565b61091b565b6040516102cb9190611695565b60405180910390f35b6060600380546102e390611853565b80601f016020809104026020016040519081016040528092919081815260200182805461030f90611853565b801561035c5780601f106103315761010080835404028352916020019161035c565b820191906000526020600020905b81548152906001019060200180831161033f57829003601f168201915b5050505050905090565b600061037a6103736109a2565b84846109aa565b6001905092915050565b6000600254905090565b600061039b848484610b75565b6000600160008673ffffffffffffffffffffffffffffffffffffffff1673ffffffffffffffffffffffffffffffffffffffff16815260200190815260200160002060006103e66109a2565b73ffffffffffffffffffffffffffffffffffffffff1673ffffffffffffffffffffffffffffffffffffffff16815260200190815260200160002054905082811015610466576040517f08c379a000000000000000000000000000000000000000000000000000000000815260040161045d906115b5565b60405180910390fd5b610483856104726109a2565b858461047e9190611797565b6109aa565b60019150509392505050565b60028161049c919061173d565b6104a533610664565b10156104e6576040517f08c379a00000000000000000000000000000000000000000000000000000000081526004016104dd906115d5565b60405180910390fd5b6104fc336002836104f7919061173d565b610df4565b600560009054906101000a900473ffffffffffffffffffffffffffffffffffffffff1673ffffffffffffffffffffffffffffffffffffffff1663a9059cbb33836040518363ffffffff1660e01b81526004016105599291906114cf565b602060405180830381600087803b15801561057357600080fd5b505af1158015610587573d6000803e3d6000fd5b505050506040513d601f19601f820116820180604052508101906105ab9190611250565b5050565b60006012905090565b600061065a6105c56109a2565b8484600160006105d36109a2565b73ffffffffffffffffffffffffffffffffffffffff1673ffffffffffffffffffffffffffffffffffffffff16815260200190815260200160002060008873ffffffffffffffffffffffffffffffffffffffff1673ffffffffffffffffffffffffffffffffffffffff1681526020019081526020016000205461065591906116e7565b6109aa565b6001905092915050565b60008060008373ffffffffffffffffffffffffffffffffffffffff1673ffffffffffffffffffffffffffffffffffffffff168152602001908152602001600020549050919050565b6060600480546106bb90611853565b80601f01602080910402602001604051908101604052809291908181526020018280546106e790611853565b80156107345780601f1061070957610100808354040283529160200191610734565b820191906000526020600020905b81548152906001019060200180831161071757829003601f168201915b5050505050905090565b6000806001600061074d6109a2565b73ffffffffffffffffffffffffffffffffffffffff1673ffffffffffffffffffffffffffffffffffffffff16815260200190815260200160002060008573ffffffffffffffffffffffffffffffffffffffff1673ffffffffffffffffffffffffffffffffffffffff1681526020019081526020016000205490508281101561080a576040517f08c379a000000000000000000000000000000000000000000000000000000000815260040161080190611655565b60405180910390fd5b6108276108156109a2565b8585846108229190611797565b6109aa565b600191505092915050565b600061084661083f6109a2565b8484610b75565b6001905092915050565b600560009054906101000a900473ffffffffffffffffffffffffffffffffffffffff1673ffffffffffffffffffffffffffffffffffffffff166323b872dd3330846040518463ffffffff1660e01b81526004016108af93929190611498565b602060405180830381600087803b1580156108c957600080fd5b505af11580156108dd573d6000803e3d6000fd5b505050506040513d601f19601f820116820180604052508101906109019190611250565b5061091833600283610913919061173d565b610fc8565b50565b6000600160008473ffffffffffffffffffffffffffffffffffffffff1673ffffffffffffffffffffffffffffffffffffffff16815260200190815260200160002060008373ffffffffffffffffffffffffffffffffffffffff1673ffffffffffffffffffffffffffffffffffffffff16815260200190815260200160002054905092915050565b600033905090565b600073ffffffffffffffffffffffffffffffffffffffff168373ffffffffffffffffffffffffffffffffffffffff161415610a1a576040517f08c379a0000000000000000000000000000000000000000000000000000000008152600401610a1190611635565b60405180910390fd5b600073ffffffffffffffffffffffffffffffffffffffff168273ffffffffffffffffffffffffffffffffffffffff161415610a8a576040517f08c379a0000000000000000000000000000000000000000000000000000000008152600401610a8190611575565b60405180910390fd5b80600160008573ffffffffffffffffffffffffffffffffffffffff1673ffffffffffffffffffffffffffffffffffffffff16815260200190815260200160002060008473ffffffffffffffffffffffffffffffffffffffff1673ffffffffffffffffffffffffffffffffffffffff168152602001908152602001600020819055508173ffffffffffffffffffffffffffffffffffffffff168373ffffffffffffffffffffffffffffffffffffffff167f8c5be1e5ebec7d5bd14f71427d1e84f3dd0314c0f7b2291e5b200ac8c7c3b92583604051610b689190611695565b60405180910390a3505050565b600073ffffffffffffffffffffffffffffffffffffffff168373ffffffffffffffffffffffffffffffffffffffff161415610be5576040517f08c379a0000000000000000000000000000000000000000000000000000000008152600401610bdc90611615565b60405180910390fd5b600073ffffffffffffffffffffffffffffffffffffffff168273ffffffffffffffffffffffffffffffffffffffff161415610c55576040517f08c379a0000000000000000000000000000000000000000000000000000000008152600401610c4c90611535565b60405180910390fd5b610c6083838361111c565b60008060008573ffffffffffffffffffffffffffffffffffffffff1673ffffffffffffffffffffffffffffffffffffffff16815260200190815260200160002054905081811015610ce6576040517f08c379a0000000000000000000000000000000000000000000000000000000008152600401610cdd90611595565b60405180910390fd5b8181610cf29190611797565b6000808673ffffffffffffffffffffffffffffffffffffffff1673ffffffffffffffffffffffffffffffffffffffff16815260200190815260200160002081905550816000808573ffffffffffffffffffffffffffffffffffffffff1673ffffffffffffffffffffffffffffffffffffffff1681526020019081526020016000206000828254610d8291906116e7565b925050819055508273ffffffffffffffffffffffffffffffffffffffff168473ffffffffffffffffffffffffffffffffffffffff167fddf252ad1be2c89b69c2b068fc378daa952ba7f163c4a11628f55a4df523b3ef84604051610de69190611695565b60405180910390a350505050565b600073ffffffffffffffffffffffffffffffffffffffff168273ffffffffffffffffffffffffffffffffffffffff161415610e64576040517f08c379a0000000000000000000000000000000000000000000000000000000008152600401610e5b906115f5565b60405180910390fd5b610e708260008361111c565b60008060008473ffffffffffffffffffffffffffffffffffffffff1673ffffffffffffffffffffffffffffffffffffffff16815260200190815260200160002054905081811015610ef6576040517f08c379a0000000000000000000000000000000000000000000000000000000008152600401610eed90611555565b60405180910390fd5b8181610f029190611797565b6000808573ffffffffffffffffffffffffffffffffffffffff1673ffffffffffffffffffffffffffffffffffffffff168152602001908152602001600020819055508160026000828254610f569190611797565b92505081905550600073ffffffffffffffffffffffffffffffffffffffff168373ffffffffffffffffffffffffffffffffffffffff167fddf252ad1be2c89b69c2b068fc378daa952ba7f163c4a11628f55a4df523b3ef84604051610fbb9190611695565b60405180910390a3505050565b600073ffffffffffffffffffffffffffffffffffffffff168273ffffffffffffffffffffffffffffffffffffffff161415611038576040517f08c379a000000000000000000000000000000000000000000000000000000000815260040161102f90611675565b60405180910390fd5b6110446000838361111c565b806002600082825461105691906116e7565b92505081905550806000808473ffffffffffffffffffffffffffffffffffffffff1673ffffffffffffffffffffffffffffffffffffffff16815260200190815260200160002060008282546110ab91906116e7565b925050819055508173ffffffffffffffffffffffffffffffffffffffff16600073ffffffffffffffffffffffffffffffffffffffff167fddf252ad1be2c89b69c2b068fc378daa952ba7f163c4a11628f55a4df523b3ef836040516111109190611695565b60405180910390a35050565b505050565b60008135905061113081611c0d565b92915050565b60008151905061114581611c24565b92915050565b60008135905061115a81611c3b565b92915050565b60006020828403121561117257600080fd5b600061118084828501611121565b91505092915050565b6000806040838503121561119c57600080fd5b60006111aa85828601611121565b92505060206111bb85828601611121565b9150509250929050565b6000806000606084860312156111da57600080fd5b60006111e886828701611121565b93505060206111f986828701611121565b925050604061120a8682870161114b565b9150509250925092565b6000806040838503121561122757600080fd5b600061123585828601611121565b92505060206112468582860161114b565b9150509250929050565b60006020828403121561126257600080fd5b600061127084828501611136565b91505092915050565b60006020828403121561128b57600080fd5b60006112998482850161114b565b91505092915050565b6112ab816117cb565b82525050565b6112ba816117dd565b82525050565b60006112cb826116cb565b6112d581856116d6565b93506112e5818560208601611820565b6112ee816118e3565b840191505092915050565b60006113066023836116d6565b9150611311826118f4565b604082019050919050565b60006113296022836116d6565b915061133482611943565b604082019050919050565b600061134c6022836116d6565b915061135782611992565b604082019050919050565b600061136f6026836116d6565b915061137a826119e1565b604082019050919050565b60006113926028836116d6565b915061139d82611a30565b604082019050919050565b60006113b56014836116d6565b91506113c082611a7f565b602082019050919050565b60006113d86021836116d6565b91506113e382611aa8565b604082019050919050565b60006113fb6025836116d6565b915061140682611af7565b604082019050919050565b600061141e6024836116d6565b915061142982611b46565b604082019050919050565b60006114416025836116d6565b915061144c82611b95565b604082019050919050565b6000611464601f836116d6565b915061146f82611be4565b602082019050919050565b61148381611809565b82525050565b61149281611813565b82525050565b60006060820190506114ad60008301866112a2565b6114ba60208301856112a2565b6114c7604083018461147a565b949350505050565b60006040820190506114e460008301856112a2565b6114f1602083018461147a565b9392505050565b600060208201905061150d60008301846112b1565b92915050565b6000602082019050818103600083015261152d81846112c0565b905092915050565b6000602082019050818103600083015261154e816112f9565b9050919050565b6000602082019050818103600083015261156e8161131c565b9050919050565b6000602082019050818103600083015261158e8161133f565b9050919050565b600060208201905081810360008301526115ae81611362565b9050919050565b600060208201905081810360008301526115ce81611385565b9050919050565b600060208201905081810360008301526115ee816113a8565b9050919050565b6000602082019050818103600083015261160e816113cb565b9050919050565b6000602082019050818103600083015261162e816113ee565b9050919050565b6000602082019050818103600083015261164e81611411565b9050919050565b6000602082019050818103600083015261166e81611434565b9050919050565b6000602082019050818103600083015261168e81611457565b9050919050565b60006020820190506116aa600083018461147a565b92915050565b60006020820190506116c56000830184611489565b92915050565b600081519050919050565b600082825260208201905092915050565b60006116f282611809565b91506116fd83611809565b9250827fffffffffffffffffffffffffffffffffffffffffffffffffffffffffffffffff0382111561173257611731611885565b5b828201905092915050565b600061174882611809565b915061175383611809565b9250817fffffffffffffffffffffffffffffffffffffffffffffffffffffffffffffffff048311821515161561178c5761178b611885565b5b828202905092915050565b60006117a282611809565b91506117ad83611809565b9250828210156117c0576117bf611885565b5b828203905092915050565b60006117d6826117e9565b9050919050565b60008115159050919050565b600073ffffffffffffffffffffffffffffffffffffffff82169050919050565b6000819050919050565b600060ff82169050919050565b60005b8381101561183e578082015181840152602081019050611823565b8381111561184d576000848401525b50505050565b6000600282049050600182168061186b57607f821691505b6020821081141561187f5761187e6118b4565b5b50919050565b7f4e487b7100000000000000000000000000000000000000000000000000000000600052601160045260246000fd5b7f4e487b7100000000000000000000000000000000000000000000000000000000600052602260045260246000fd5b6000601f19601f8301169050919050565b7f45524332303a207472616e7366657220746f20746865207a65726f206164647260008201527f6573730000000000000000000000000000000000000000000000000000000000602082015250565b7f45524332303a206275726e20616d6f756e7420657863656564732062616c616e60008201527f6365000000000000000000000000000000000000000000000000000000000000602082015250565b7f45524332303a20617070726f766520746f20746865207a65726f20616464726560008201527f7373000000000000000000000000000000000000000000000000000000000000602082015250565b7f45524332303a207472616e7366657220616d6f756e742065786365656473206260008201527f616c616e63650000000000000000000000000000000000000000000000000000602082015250565b7f45524332303a207472616e7366657220616d6f756e742065786365656473206160008201527f6c6c6f77616e6365000000000000000000000000000000000000000000000000602082015250565b7f696e73756666696369656e742062616c616e6365000000000000000000000000600082015250565b7f45524332303a206275726e2066726f6d20746865207a65726f2061646472657360008201527f7300000000000000000000000000000000000000000000000000000000000000602082015250565b7f45524332303a207472616e736665722066726f6d20746865207a65726f20616460008201527f6472657373000000000000000000000000000000000000000000000000000000602082015250565b7f45524332303a20617070726f76652066726f6d20746865207a65726f2061646460008201527f7265737300000000000000000000000000000000000000000000000000000000602082015250565b7f45524332303a2064656372656173656420616c6c6f77616e63652062656c6f7760008201527f207a65726f000000000000000000000000000000000000000000000000000000602082015250565b7f45524332303a206d696e7420746f20746865207a65726f206164647265737300600082015250565b611c16816117cb565b8114611c2157600080fd5b50565b611c2d816117dd565b8114611c3857600080fd5b50565b611c4481611809565b8114611c4f57600080fd5b5056fea264697066735822122028a09fa032020767332615b195da4ab06efc06a47a05ffad1435e4c45a3a26ac64736f6c63430008030033",
  "immutableReferences": {},
  "source": "// SPDX-License-Identifier: MIT\r\npragma solidity >=0.4.22 <0.9.0;\r\n\r\nimport '@openzeppelin/contracts/token/ERC20/ERC20.sol';\r\nimport '@openzeppelin/contracts/token/ERC20/IERC20.sol';\r\n\r\n/// @title An example of a collateral backed token, for example LP token.\r\n/// @author Anderson Singh\r\n\r\ncontract CollateralBackedToken is ERC20 {\r\n\r\n    IERC20 private collateral; \r\n    uint private multipler; \r\n    \r\n    constructor (address _collateral) ERC20('Collateral Backed Token', 'CBT') {\r\n        collateral = IERC20(_collateral);\r\n        // for each collateral token, get x2 collateral backed token.\r\n        multipler = 2;\r\n    }\r\n\r\n    /// @notice user must first approve collateralAmount.\r\n    function deposit(uint collateralAmount) external {\r\n        collateral.transferFrom(msg.sender, address(this), collateralAmount);\r\n        _mint(msg.sender, collateralAmount * 2);\r\n    }\r\n\r\n    /// @notice user must withdraw using the collateral amount, not token amount.\r\n    function withdraw(uint collateralAmount) external {\r\n        require(balanceOf(msg.sender) >= collateralAmount * 2, 'insufficient balance');\r\n        _burn(msg.sender, collateralAmount * 2);\r\n        collateral.transfer(msg.sender, collateralAmount);\r\n    }\r\n}",
  "sourcePath": "D:/Projects/collateral-backed-token/contracts/CollateralBackedToken.sol",
  "compiler": {
    "name": "solc",
    "version": "0.8.3+commit.8d00100c.Emscripten.clang"
  },
  "schemaVersion": "3.3.3",
  "updatedAt": "2021-05-24T17:18:45.529Z",
  "devdoc": {
    "author": "Anderson Singh",
    "kind": "dev",
    "methods": {
      "allowance(address,address)": {
        "details": "See {IERC20-allowance}."
      },
      "approve(address,uint256)": {
        "details": "See {IERC20-approve}. Requirements: - `spender` cannot be the zero address."
      },
      "balanceOf(address)": {
        "details": "See {IERC20-balanceOf}."
      },
      "decimals()": {
        "details": "Returns the number of decimals used to get its user representation. For example, if `decimals` equals `2`, a balance of `505` tokens should be displayed to a user as `5,05` (`505 / 10 ** 2`). Tokens usually opt for a value of 18, imitating the relationship between Ether and Wei. This is the value {ERC20} uses, unless this function is overridden; NOTE: This information is only used for _display_ purposes: it in no way affects any of the arithmetic of the contract, including {IERC20-balanceOf} and {IERC20-transfer}."
      },
      "decreaseAllowance(address,uint256)": {
        "details": "Atomically decreases the allowance granted to `spender` by the caller. This is an alternative to {approve} that can be used as a mitigation for problems described in {IERC20-approve}. Emits an {Approval} event indicating the updated allowance. Requirements: - `spender` cannot be the zero address. - `spender` must have allowance for the caller of at least `subtractedValue`."
      },
      "increaseAllowance(address,uint256)": {
        "details": "Atomically increases the allowance granted to `spender` by the caller. This is an alternative to {approve} that can be used as a mitigation for problems described in {IERC20-approve}. Emits an {Approval} event indicating the updated allowance. Requirements: - `spender` cannot be the zero address."
      },
      "name()": {
        "details": "Returns the name of the token."
      },
      "symbol()": {
        "details": "Returns the symbol of the token, usually a shorter version of the name."
      },
      "totalSupply()": {
        "details": "See {IERC20-totalSupply}."
      },
      "transfer(address,uint256)": {
        "details": "See {IERC20-transfer}. Requirements: - `recipient` cannot be the zero address. - the caller must have a balance of at least `amount`."
      },
      "transferFrom(address,address,uint256)": {
        "details": "See {IERC20-transferFrom}. Emits an {Approval} event indicating the updated allowance. This is not required by the EIP. See the note at the beginning of {ERC20}. Requirements: - `sender` and `recipient` cannot be the zero address. - `sender` must have a balance of at least `amount`. - the caller must have allowance for ``sender``'s tokens of at least `amount`."
      }
    },
    "title": "An example of a collateral backed token, for example LP token.",
    "version": 1
  },
  "userdoc": {
    "kind": "user",
    "methods": {
      "deposit(uint256)": {
        "notice": "user must first approve collateralAmount."
      },
      "withdraw(uint256)": {
        "notice": "user must withdraw using the collateral amount, not token amount."
      }
    },
    "version": 1
  }
}